{
  "address": "0x5FbDB2315678afecb367f032d93F642f64180aa3",
  "abi": [
    {
      "inputs": [],
      "stateMutability": "nonpayable",
      "type": "constructor"
    },
    {
      "anonymous": false,
      "inputs": [
        {
          "indexed": true,
          "internalType": "address",
          "name": "owner",
          "type": "address"
        },
        {
          "indexed": true,
          "internalType": "address",
          "name": "approved",
          "type": "address"
        },
        {
          "indexed": true,
          "internalType": "uint256",
          "name": "tokenId",
          "type": "uint256"
        }
      ],
      "name": "Approval",
      "type": "event"
    },
    {
      "anonymous": false,
      "inputs": [
        {
          "indexed": true,
          "internalType": "address",
          "name": "owner",
          "type": "address"
        },
        {
          "indexed": true,
          "internalType": "address",
          "name": "operator",
          "type": "address"
        },
        {
          "indexed": false,
          "internalType": "bool",
          "name": "approved",
          "type": "bool"
        }
      ],
      "name": "ApprovalForAll",
      "type": "event"
    },
    {
      "anonymous": false,
      "inputs": [
        {
          "indexed": true,
          "internalType": "address",
          "name": "previousOwner",
          "type": "address"
        },
        {
          "indexed": true,
          "internalType": "address",
          "name": "newOwner",
          "type": "address"
        }
      ],
      "name": "OwnershipTransferred",
      "type": "event"
    },
    {
      "anonymous": false,
      "inputs": [
        {
          "indexed": false,
          "internalType": "address",
          "name": "account",
          "type": "address"
        }
      ],
      "name": "Paused",
      "type": "event"
    },
    {
      "anonymous": false,
      "inputs": [
        {
          "indexed": true,
          "internalType": "address",
          "name": "from",
          "type": "address"
        },
        {
          "indexed": true,
          "internalType": "address",
          "name": "to",
          "type": "address"
        },
        {
          "indexed": true,
          "internalType": "uint256",
          "name": "tokenId",
          "type": "uint256"
        }
      ],
      "name": "Transfer",
      "type": "event"
    },
    {
      "anonymous": false,
      "inputs": [
        {
          "indexed": false,
          "internalType": "address",
          "name": "account",
          "type": "address"
        }
      ],
      "name": "Unpaused",
      "type": "event"
    },
    {
      "inputs": [
        {
          "internalType": "address",
          "name": "to",
          "type": "address"
        },
        {
          "internalType": "uint256",
          "name": "tokenId",
          "type": "uint256"
        }
      ],
      "name": "approve",
      "outputs": [],
      "stateMutability": "nonpayable",
      "type": "function"
    },
    {
      "inputs": [
        {
          "internalType": "address",
          "name": "owner",
          "type": "address"
        }
      ],
      "name": "balanceOf",
      "outputs": [
        {
          "internalType": "uint256",
          "name": "",
          "type": "uint256"
        }
      ],
      "stateMutability": "view",
      "type": "function"
    },
    {
      "inputs": [],
      "name": "claim",
      "outputs": [],
      "stateMutability": "nonpayable",
      "type": "function"
    },
    {
      "inputs": [],
      "name": "endClaim",
      "outputs": [],
      "stateMutability": "nonpayable",
      "type": "function"
    },
    {
      "inputs": [
        {
          "internalType": "uint256",
          "name": "tokenId",
          "type": "uint256"
        }
      ],
      "name": "getApproved",
      "outputs": [
        {
          "internalType": "address",
          "name": "",
          "type": "address"
        }
      ],
      "stateMutability": "view",
      "type": "function"
    },
    {
      "inputs": [
        {
          "internalType": "address",
          "name": "owner",
          "type": "address"
        },
        {
          "internalType": "address",
          "name": "operator",
          "type": "address"
        }
      ],
      "name": "isApprovedForAll",
      "outputs": [
        {
          "internalType": "bool",
          "name": "",
          "type": "bool"
        }
      ],
      "stateMutability": "view",
      "type": "function"
    },
    {
      "inputs": [],
      "name": "mint",
      "outputs": [],
      "stateMutability": "payable",
      "type": "function"
    },
    {
      "inputs": [],
      "name": "name",
      "outputs": [
        {
          "internalType": "string",
          "name": "",
          "type": "string"
        }
      ],
      "stateMutability": "view",
      "type": "function"
    },
    {
      "inputs": [],
      "name": "owner",
      "outputs": [
        {
          "internalType": "address",
          "name": "",
          "type": "address"
        }
      ],
      "stateMutability": "view",
      "type": "function"
    },
    {
      "inputs": [],
      "name": "ownerClaim",
      "outputs": [],
      "stateMutability": "nonpayable",
      "type": "function"
    },
    {
      "inputs": [
        {
          "internalType": "uint256",
          "name": "tokenId",
          "type": "uint256"
        }
      ],
      "name": "ownerOf",
      "outputs": [
        {
          "internalType": "address",
          "name": "",
          "type": "address"
        }
      ],
      "stateMutability": "view",
      "type": "function"
    },
    {
      "inputs": [],
      "name": "paused",
      "outputs": [
        {
          "internalType": "bool",
          "name": "",
          "type": "bool"
        }
      ],
      "stateMutability": "view",
      "type": "function"
    },
    {
      "inputs": [],
      "name": "renounceOwnership",
      "outputs": [],
      "stateMutability": "nonpayable",
      "type": "function"
    },
    {
      "inputs": [],
      "name": "rewardPerSec",
      "outputs": [
        {
          "internalType": "uint256",
          "name": "",
          "type": "uint256"
        }
      ],
      "stateMutability": "view",
      "type": "function"
    },
    {
      "inputs": [
        {
          "internalType": "address",
          "name": "from",
          "type": "address"
        },
        {
          "internalType": "address",
          "name": "to",
          "type": "address"
        },
        {
          "internalType": "uint256",
          "name": "tokenId",
          "type": "uint256"
        }
      ],
      "name": "safeTransferFrom",
      "outputs": [],
      "stateMutability": "nonpayable",
      "type": "function"
    },
    {
      "inputs": [
        {
          "internalType": "address",
          "name": "from",
          "type": "address"
        },
        {
          "internalType": "address",
          "name": "to",
          "type": "address"
        },
        {
          "internalType": "uint256",
          "name": "tokenId",
          "type": "uint256"
        },
        {
          "internalType": "bytes",
          "name": "_data",
          "type": "bytes"
        }
      ],
      "name": "safeTransferFrom",
      "outputs": [],
      "stateMutability": "nonpayable",
      "type": "function"
    },
    {
      "inputs": [
        {
          "internalType": "address",
          "name": "operator",
          "type": "address"
        },
        {
          "internalType": "bool",
          "name": "approved",
          "type": "bool"
        }
      ],
      "name": "setApprovalForAll",
      "outputs": [],
      "stateMutability": "nonpayable",
      "type": "function"
    },
    {
      "inputs": [],
      "name": "startClaim",
      "outputs": [],
      "stateMutability": "payable",
      "type": "function"
    },
    {
      "inputs": [
        {
          "internalType": "bytes4",
          "name": "interfaceId",
          "type": "bytes4"
        }
      ],
      "name": "supportsInterface",
      "outputs": [
        {
          "internalType": "bool",
          "name": "",
          "type": "bool"
        }
      ],
      "stateMutability": "view",
      "type": "function"
    },
    {
      "inputs": [],
      "name": "symbol",
      "outputs": [
        {
          "internalType": "string",
          "name": "",
          "type": "string"
        }
      ],
      "stateMutability": "view",
      "type": "function"
    },
    {
      "inputs": [
        {
          "internalType": "uint256",
          "name": "index",
          "type": "uint256"
        }
      ],
      "name": "tokenByIndex",
      "outputs": [
        {
          "internalType": "uint256",
          "name": "",
          "type": "uint256"
        }
      ],
      "stateMutability": "view",
      "type": "function"
    },
    {
      "inputs": [
        {
          "internalType": "address",
          "name": "owner",
          "type": "address"
        },
        {
          "internalType": "uint256",
          "name": "index",
          "type": "uint256"
        }
      ],
      "name": "tokenOfOwnerByIndex",
      "outputs": [
        {
          "internalType": "uint256",
          "name": "",
          "type": "uint256"
        }
      ],
      "stateMutability": "view",
      "type": "function"
    },
    {
      "inputs": [
        {
          "internalType": "uint256",
          "name": "tokenId",
          "type": "uint256"
        }
      ],
      "name": "tokenURI",
      "outputs": [
        {
          "internalType": "string",
          "name": "",
          "type": "string"
        }
      ],
      "stateMutability": "view",
      "type": "function"
    },
    {
      "inputs": [],
      "name": "totalSupply",
      "outputs": [
        {
          "internalType": "uint256",
          "name": "",
          "type": "uint256"
        }
      ],
      "stateMutability": "view",
      "type": "function"
    },
    {
      "inputs": [
        {
          "internalType": "address",
          "name": "from",
          "type": "address"
        },
        {
          "internalType": "address",
          "name": "to",
          "type": "address"
        },
        {
          "internalType": "uint256",
          "name": "tokenId",
          "type": "uint256"
        }
      ],
      "name": "transferFrom",
      "outputs": [],
      "stateMutability": "nonpayable",
      "type": "function"
    },
    {
      "inputs": [
        {
          "internalType": "address",
          "name": "newOwner",
          "type": "address"
        }
      ],
      "name": "transferOwnership",
      "outputs": [],
      "stateMutability": "nonpayable",
      "type": "function"
    },
    {
      "stateMutability": "payable",
      "type": "receive"
    }
  ],
  "transactionHash": "0x5dd42251a11c683a64926948c02864b758a5bcd861d3cbe32ee87d5504837c68",
  "args": [],
  "numDeployments": 1,
  "solcInputHash": "bd6e710607354519a0e15de832d3214c",
  "bytecode": "0x60806040523480156200001157600080fd5b506040518060400160405280601481526020017f4b696e67736c65792046756e64696e67204e46540000000000000000000000008152506040518060400160405280600681526020017f4b462d4e4654000000000000000000000000000000000000000000000000000081525081600090805190602001906200009692919062000241565b508060019080519060200190620000af92919062000241565b5050506000600a60006101000a81548160ff021916908315150217905550620000ed620000e16200017360201b60201c565b6200017b60201b60201c565b42600b60000160006101000a8154816fffffffffffffffffffffffffffffffff02191690836fffffffffffffffffffffffffffffffff16021790555042600b60000160106101000a8154816fffffffffffffffffffffffffffffffff02191690836fffffffffffffffffffffffffffffffff1602179055506000600c8190555062000356565b600033905090565b6000600a60019054906101000a900473ffffffffffffffffffffffffffffffffffffffff16905081600a60016101000a81548173ffffffffffffffffffffffffffffffffffffffff021916908373ffffffffffffffffffffffffffffffffffffffff1602179055508173ffffffffffffffffffffffffffffffffffffffff168173ffffffffffffffffffffffffffffffffffffffff167f8be0079c531659141344cd1fd0a4f28419497f9722a3daafe3b4186f6b6457e060405160405180910390a35050565b8280546200024f90620002f1565b90600052602060002090601f016020900481019282620002735760008555620002bf565b82601f106200028e57805160ff1916838001178555620002bf565b82800160010185558215620002bf579182015b82811115620002be578251825591602001919060010190620002a1565b5b509050620002ce9190620002d2565b5090565b5b80821115620002ed576000816000905550600101620002d3565b5090565b600060028204905060018216806200030a57607f821691505b6020821081141562000321576200032062000327565b5b50919050565b7f4e487b7100000000000000000000000000000000000000000000000000000000600052602260045260246000fd5b613c4f80620003666000396000f3fe6080604052600436106101855760003560e01c80635c975abb116100d1578063a22cb4651161008a578063c87b56dd11610064578063c87b56dd1461057c578063e985e9c5146105b9578063ecbfc077146105f6578063f2fde38b14610600576101d4565b8063a22cb46514610513578063b2c62d461461053c578063b88d4fde14610553576101d4565b80635c975abb146104015780636352211e1461042c57806370a0823114610469578063715018a6146104a65780638da5cb5b146104bd57806395d89b41146104e8576101d4565b806323b872dd1161013e5780634dbe5889116101185780634dbe58891461036b5780634e71d92d146103825780634f41e95d146103995780634f6ccce7146103c4576101d4565b806323b872dd146102dc5780632f745c591461030557806342842e0e14610342576101d4565b806301ffc9a7146101d957806306fdde0314610216578063081812fc14610241578063095ea7b31461027e5780631249c58b146102a757806318160ddd146102b1576101d4565b366101d457610192610629565b156101d2576040517f08c379a00000000000000000000000000000000000000000000000000000000081526004016101c990612dfb565b60405180910390fd5b005b600080fd5b3480156101e557600080fd5b5061020060048036038101906101fb9190612825565b610640565b60405161020d9190612d9e565b60405180910390f35b34801561022257600080fd5b5061022b6106ba565b6040516102389190612db9565b60405180910390f35b34801561024d57600080fd5b5061026860048036038101906102639190612877565b61074c565b6040516102759190612d37565b60405180910390f35b34801561028a57600080fd5b506102a560048036038101906102a091906127e9565b6107d1565b005b6102af6108e9565b005b3480156102bd57600080fd5b506102c66109fb565b6040516102d391906130fb565b60405180910390f35b3480156102e857600080fd5b5061030360048036038101906102fe91906126e3565b610a08565b005b34801561031157600080fd5b5061032c600480360381019061032791906127e9565b610a68565b60405161033991906130fb565b60405180910390f35b34801561034e57600080fd5b50610369600480360381019061036491906126e3565b610b0d565b005b34801561037757600080fd5b50610380610b2d565b005b34801561038e57600080fd5b50610397610b88565b005b3480156103a557600080fd5b506103ae610d1b565b6040516103bb91906130fb565b60405180910390f35b3480156103d057600080fd5b506103eb60048036038101906103e69190612877565b610d21565b6040516103f891906130fb565b60405180910390f35b34801561040d57600080fd5b50610416610629565b6040516104239190612d9e565b60405180910390f35b34801561043857600080fd5b50610453600480360381019061044e9190612877565b610db8565b6040516104609190612d37565b60405180910390f35b34801561047557600080fd5b50610490600480360381019061048b919061267e565b610e6a565b60405161049d91906130fb565b60405180910390f35b3480156104b257600080fd5b506104bb610f22565b005b3480156104c957600080fd5b506104d2610faa565b6040516104df9190612d37565b60405180910390f35b3480156104f457600080fd5b506104fd610fd4565b60405161050a9190612db9565b60405180910390f35b34801561051f57600080fd5b5061053a600480360381019061053591906127ad565b611066565b005b34801561054857600080fd5b5061055161107c565b005b34801561055f57600080fd5b5061057a60048036038101906105759190612732565b61113e565b005b34801561058857600080fd5b506105a3600480360381019061059e9190612877565b6111a0565b6040516105b09190612db9565b60405180910390f35b3480156105c557600080fd5b506105e060048036038101906105db91906126a7565b611247565b6040516105ed9190612d9e565b60405180910390f35b6105fe6112db565b005b34801561060c57600080fd5b506106276004803603810190610622919061267e565b611420565b005b6000600a60009054906101000a900460ff16905090565b60007f780e9d63000000000000000000000000000000000000000000000000000000007bffffffffffffffffffffffffffffffffffffffffffffffffffffffff1916827bffffffffffffffffffffffffffffffffffffffffffffffffffffffff191614806106b357506106b282611518565b5b9050919050565b6060600080546106c9906133d5565b80601f01602080910402602001604051908101604052809291908181526020018280546106f5906133d5565b80156107425780601f1061071757610100808354040283529160200191610742565b820191906000526020600020905b81548152906001019060200180831161072557829003601f168201915b5050505050905090565b6000610757826115fa565b610796576040517f08c379a000000000000000000000000000000000000000000000000000000000815260040161078d9061301b565b60405180910390fd5b6004600083815260200190815260200160002060009054906101000a900473ffffffffffffffffffffffffffffffffffffffff169050919050565b60006107dc82610db8565b90508073ffffffffffffffffffffffffffffffffffffffff168373ffffffffffffffffffffffffffffffffffffffff16141561084d576040517f08c379a00000000000000000000000000000000000000000000000000000000081526004016108449061309b565b60405180910390fd5b8073ffffffffffffffffffffffffffffffffffffffff1661086c611666565b73ffffffffffffffffffffffffffffffffffffffff16148061089b575061089a81610895611666565b611247565b5b6108da576040517f08c379a00000000000000000000000000000000000000000000000000000000081526004016108d190612f9b565b60405180910390fd5b6108e4838361166e565b505050565b6108f1610629565b15610931576040517f08c379a000000000000000000000000000000000000000000000000000000000815260040161092890612f7b565b60405180910390fd5b670c52cf4b908c0000341161097b576040517f08c379a000000000000000000000000000000000000000000000000000000000815260040161097290612ddb565b60405180910390fd5b60006109856109fb565b90506101bc61ffff1681106109cf576040517f08c379a00000000000000000000000000000000000000000000000000000000081526004016109c690612f5b565b60405180910390fd5b6109e06109da611666565b82611727565b42600d60008381526020019081526020016000208190555050565b6000600880549050905090565b610a19610a13611666565b82611745565b610a58576040517f08c379a0000000000000000000000000000000000000000000000000000000008152600401610a4f906130bb565b60405180910390fd5b610a63838383611823565b505050565b6000610a7383610e6a565b8210610ab4576040517f08c379a0000000000000000000000000000000000000000000000000000000008152600401610aab90612e3b565b60405180910390fd5b600660008473ffffffffffffffffffffffffffffffffffffffff1673ffffffffffffffffffffffffffffffffffffffff168152602001908152602001600020600083815260200190815260200160002054905092915050565b610b288383836040518060200160405280600081525061113e565b505050565b610b35610629565b15610b75576040517f08c379a0000000000000000000000000000000000000000000000000000000008152600401610b6c90612f7b565b60405180910390fd5b610b86610b80610faa565b47611a7f565b565b610b90610629565b610bcf576040517f08c379a0000000000000000000000000000000000000000000000000000000008152600401610bc690612e1b565b60405180910390fd5b6000610be1610bdc611666565b610e6a565b90506000805b82811015610d05576000610c02610bfc611666565b83610a68565b90506000600d6000838152602001908152602001600020549050600b60000160009054906101000a90046fffffffffffffffffffffffffffffffff166fffffffffffffffffffffffffffffffff168110610ca557600c5481600b60000160109054906101000a90046fffffffffffffffffffffffffffffffff166fffffffffffffffffffffffffffffffff16610c9891906132cf565b610ca29190613241565b93505b600b60000160109054906101000a90046fffffffffffffffffffffffffffffffff166fffffffffffffffffffffffffffffffff16600d60008481526020019081526020016000208190555050508080610cfd90613438565b915050610be7565b50610d17610d11611666565b82611a7f565b5050565b600c5481565b6000610d2b6109fb565b8210610d6c576040517f08c379a0000000000000000000000000000000000000000000000000000000008152600401610d63906130db565b60405180910390fd5b60088281548110610da6577f4e487b7100000000000000000000000000000000000000000000000000000000600052603260045260246000fd5b90600052602060002001549050919050565b6000806002600084815260200190815260200160002060009054906101000a900473ffffffffffffffffffffffffffffffffffffffff169050600073ffffffffffffffffffffffffffffffffffffffff168173ffffffffffffffffffffffffffffffffffffffff161415610e61576040517f08c379a0000000000000000000000000000000000000000000000000000000008152600401610e5890612fdb565b60405180910390fd5b80915050919050565b60008073ffffffffffffffffffffffffffffffffffffffff168273ffffffffffffffffffffffffffffffffffffffff161415610edb576040517f08c379a0000000000000000000000000000000000000000000000000000000008152600401610ed290612fbb565b60405180910390fd5b600360008373ffffffffffffffffffffffffffffffffffffffff1673ffffffffffffffffffffffffffffffffffffffff168152602001908152602001600020549050919050565b610f2a611666565b73ffffffffffffffffffffffffffffffffffffffff16610f48610faa565b73ffffffffffffffffffffffffffffffffffffffff1614610f9e576040517f08c379a0000000000000000000000000000000000000000000000000000000008152600401610f959061303b565b60405180910390fd5b610fa86000611b73565b565b6000600a60019054906101000a900473ffffffffffffffffffffffffffffffffffffffff16905090565b606060018054610fe3906133d5565b80601f016020809104026020016040519081016040528092919081815260200182805461100f906133d5565b801561105c5780601f106110315761010080835404028352916020019161105c565b820191906000526020600020905b81548152906001019060200180831161103f57829003601f168201915b5050505050905090565b611078611071611666565b8383611c39565b5050565b611084611666565b73ffffffffffffffffffffffffffffffffffffffff166110a2610faa565b73ffffffffffffffffffffffffffffffffffffffff16146110f8576040517f08c379a00000000000000000000000000000000000000000000000000000000081526004016110ef9061303b565b60405180910390fd5b42600b60000160006101000a8154816fffffffffffffffffffffffffffffffff02191690836fffffffffffffffffffffffffffffffff16021790555061113c611da6565b565b61114f611149611666565b83611745565b61118e576040517f08c379a0000000000000000000000000000000000000000000000000000000008152600401611185906130bb565b60405180910390fd5b61119a84848484611e48565b50505050565b60606111ab826115fa565b6111ea576040517f08c379a00000000000000000000000000000000000000000000000000000000081526004016111e19061307b565b60405180910390fd5b60006111f4611ea4565b90506000815111611214576040518060200160405280600081525061123f565b8061121e84611ebb565b60405160200161122f929190612cfe565b6040516020818303038152906040525b915050919050565b6000600560008473ffffffffffffffffffffffffffffffffffffffff1673ffffffffffffffffffffffffffffffffffffffff16815260200190815260200160002060008373ffffffffffffffffffffffffffffffffffffffff1673ffffffffffffffffffffffffffffffffffffffff16815260200190815260200160002060009054906101000a900460ff16905092915050565b6112e3611666565b73ffffffffffffffffffffffffffffffffffffffff16611301610faa565b73ffffffffffffffffffffffffffffffffffffffff1614611357576040517f08c379a000000000000000000000000000000000000000000000000000000000815260040161134e9061303b565b60405180910390fd5b42600b60000160106101000a8154816fffffffffffffffffffffffffffffffff02191690836fffffffffffffffffffffffffffffffff160217905550600b60000160009054906101000a90046fffffffffffffffffffffffffffffffff16600b60000160109054906101000a90046fffffffffffffffffffffffffffffffff166113e1919061329b565b6fffffffffffffffffffffffffffffffff166113fb6109fb565b346114069190613210565b6114109190613210565b600c8190555061141e612068565b565b611428611666565b73ffffffffffffffffffffffffffffffffffffffff16611446610faa565b73ffffffffffffffffffffffffffffffffffffffff161461149c576040517f08c379a00000000000000000000000000000000000000000000000000000000081526004016114939061303b565b60405180910390fd5b600073ffffffffffffffffffffffffffffffffffffffff168173ffffffffffffffffffffffffffffffffffffffff16141561150c576040517f08c379a000000000000000000000000000000000000000000000000000000000815260040161150390612e7b565b60405180910390fd5b61151581611b73565b50565b60007f80ac58cd000000000000000000000000000000000000000000000000000000007bffffffffffffffffffffffffffffffffffffffffffffffffffffffff1916827bffffffffffffffffffffffffffffffffffffffffffffffffffffffff191614806115e357507f5b5e139f000000000000000000000000000000000000000000000000000000007bffffffffffffffffffffffffffffffffffffffffffffffffffffffff1916827bffffffffffffffffffffffffffffffffffffffffffffffffffffffff1916145b806115f357506115f28261210b565b5b9050919050565b60008073ffffffffffffffffffffffffffffffffffffffff166002600084815260200190815260200160002060009054906101000a900473ffffffffffffffffffffffffffffffffffffffff1673ffffffffffffffffffffffffffffffffffffffff1614159050919050565b600033905090565b816004600083815260200190815260200160002060006101000a81548173ffffffffffffffffffffffffffffffffffffffff021916908373ffffffffffffffffffffffffffffffffffffffff160217905550808273ffffffffffffffffffffffffffffffffffffffff166116e183610db8565b73ffffffffffffffffffffffffffffffffffffffff167f8c5be1e5ebec7d5bd14f71427d1e84f3dd0314c0f7b2291e5b200ac8c7c3b92560405160405180910390a45050565b611741828260405180602001604052806000815250612175565b5050565b6000611750826115fa565b61178f576040517f08c379a000000000000000000000000000000000000000000000000000000000815260040161178690612f3b565b60405180910390fd5b600061179a83610db8565b90508073ffffffffffffffffffffffffffffffffffffffff168473ffffffffffffffffffffffffffffffffffffffff16148061180957508373ffffffffffffffffffffffffffffffffffffffff166117f18461074c565b73ffffffffffffffffffffffffffffffffffffffff16145b8061181a57506118198185611247565b5b91505092915050565b8273ffffffffffffffffffffffffffffffffffffffff1661184382610db8565b73ffffffffffffffffffffffffffffffffffffffff1614611899576040517f08c379a00000000000000000000000000000000000000000000000000000000081526004016118909061305b565b60405180910390fd5b600073ffffffffffffffffffffffffffffffffffffffff168273ffffffffffffffffffffffffffffffffffffffff161415611909576040517f08c379a000000000000000000000000000000000000000000000000000000000815260040161190090612ebb565b60405180910390fd5b6119148383836121d0565b61191f60008261166e565b6001600360008573ffffffffffffffffffffffffffffffffffffffff1673ffffffffffffffffffffffffffffffffffffffff168152602001908152602001600020600082825461196f91906132cf565b925050819055506001600360008473ffffffffffffffffffffffffffffffffffffffff1673ffffffffffffffffffffffffffffffffffffffff16815260200190815260200160002060008282546119c691906131ba565b92505081905550816002600083815260200190815260200160002060006101000a81548173ffffffffffffffffffffffffffffffffffffffff021916908373ffffffffffffffffffffffffffffffffffffffff160217905550808273ffffffffffffffffffffffffffffffffffffffff168473ffffffffffffffffffffffffffffffffffffffff167fddf252ad1be2c89b69c2b068fc378daa952ba7f163c4a11628f55a4df523b3ef60405160405180910390a4505050565b80471015611ac2576040517f08c379a0000000000000000000000000000000000000000000000000000000008152600401611ab990612f1b565b60405180910390fd5b60008273ffffffffffffffffffffffffffffffffffffffff1682604051611ae890612d22565b60006040518083038185875af1925050503d8060008114611b25576040519150601f19603f3d011682016040523d82523d6000602084013e611b2a565b606091505b5050905080611b6e576040517f08c379a0000000000000000000000000000000000000000000000000000000008152600401611b6590612efb565b60405180910390fd5b505050565b6000600a60019054906101000a900473ffffffffffffffffffffffffffffffffffffffff16905081600a60016101000a81548173ffffffffffffffffffffffffffffffffffffffff021916908373ffffffffffffffffffffffffffffffffffffffff1602179055508173ffffffffffffffffffffffffffffffffffffffff168173ffffffffffffffffffffffffffffffffffffffff167f8be0079c531659141344cd1fd0a4f28419497f9722a3daafe3b4186f6b6457e060405160405180910390a35050565b8173ffffffffffffffffffffffffffffffffffffffff168373ffffffffffffffffffffffffffffffffffffffff161415611ca8576040517f08c379a0000000000000000000000000000000000000000000000000000000008152600401611c9f90612edb565b60405180910390fd5b80600560008573ffffffffffffffffffffffffffffffffffffffff1673ffffffffffffffffffffffffffffffffffffffff16815260200190815260200160002060008473ffffffffffffffffffffffffffffffffffffffff1673ffffffffffffffffffffffffffffffffffffffff16815260200190815260200160002060006101000a81548160ff0219169083151502179055508173ffffffffffffffffffffffffffffffffffffffff168373ffffffffffffffffffffffffffffffffffffffff167f17307eab39ab6107e8899845ad3d59bd9653f200f220920489ca2b5937696c3183604051611d999190612d9e565b60405180910390a3505050565b611dae610629565b611ded576040517f08c379a0000000000000000000000000000000000000000000000000000000008152600401611de490612e1b565b60405180910390fd5b6000600a60006101000a81548160ff0219169083151502179055507f5db9ee0a495bf2e6ff9c91a7834c1ba4fdd244a5e8aa4e537bd38aeae4b073aa611e31611666565b604051611e3e9190612d37565b60405180910390a1565b611e53848484611823565b611e5f84848484612235565b611e9e576040517f08c379a0000000000000000000000000000000000000000000000000000000008152600401611e9590612e5b565b60405180910390fd5b50505050565b606060405180602001604052806000815250905090565b60606000821415611f03576040518060400160405280600181526020017f30000000000000000000000000000000000000000000000000000000000000008152509050612063565b600082905060005b60008214611f35578080611f1e90613438565b915050600a82611f2e9190613210565b9150611f0b565b60008167ffffffffffffffff811115611f77577f4e487b7100000000000000000000000000000000000000000000000000000000600052604160045260246000fd5b6040519080825280601f01601f191660200182016040528015611fa95781602001600182028036833780820191505090505b5090505b6000851461205c57600182611fc291906132cf565b9150600a85611fd19190613481565b6030611fdd91906131ba565b60f81b818381518110612019577f4e487b7100000000000000000000000000000000000000000000000000000000600052603260045260246000fd5b60200101907effffffffffffffffffffffffffffffffffffffffffffffffffffffffffffff1916908160001a905350600a856120559190613210565b9450611fad565b8093505050505b919050565b612070610629565b156120b0576040517f08c379a00000000000000000000000000000000000000000000000000000000081526004016120a790612f7b565b60405180910390fd5b6001600a60006101000a81548160ff0219169083151502179055507f62e78cea01bee320cd4e420270b5ea74000d11b0c9f74754ebdbfc544b05a2586120f4611666565b6040516121019190612d37565b60405180910390a1565b60007f01ffc9a7000000000000000000000000000000000000000000000000000000007bffffffffffffffffffffffffffffffffffffffffffffffffffffffff1916827bffffffffffffffffffffffffffffffffffffffffffffffffffffffff1916149050919050565b61217f83836123cc565b61218c6000848484612235565b6121cb576040517f08c379a00000000000000000000000000000000000000000000000000000000081526004016121c290612e5b565b60405180910390fd5b505050565b6121d8610629565b15612218576040517f08c379a000000000000000000000000000000000000000000000000000000000815260040161220f90612f7b565b60405180910390fd5b42600d600083815260200190815260200160002081905550505050565b60006122568473ffffffffffffffffffffffffffffffffffffffff1661259a565b156123bf578373ffffffffffffffffffffffffffffffffffffffff1663150b7a0261227f611666565b8786866040518563ffffffff1660e01b81526004016122a19493929190612d52565b602060405180830381600087803b1580156122bb57600080fd5b505af19250505080156122ec57506040513d601f19601f820116820180604052508101906122e9919061284e565b60015b61236f573d806000811461231c576040519150601f19603f3d011682016040523d82523d6000602084013e612321565b606091505b50600081511415612367576040517f08c379a000000000000000000000000000000000000000000000000000000000815260040161235e90612e5b565b60405180910390fd5b805181602001fd5b63150b7a0260e01b7bffffffffffffffffffffffffffffffffffffffffffffffffffffffff1916817bffffffffffffffffffffffffffffffffffffffffffffffffffffffff1916149150506123c4565b600190505b949350505050565b600073ffffffffffffffffffffffffffffffffffffffff168273ffffffffffffffffffffffffffffffffffffffff16141561243c576040517f08c379a000000000000000000000000000000000000000000000000000000000815260040161243390612ffb565b60405180910390fd5b612445816115fa565b15612485576040517f08c379a000000000000000000000000000000000000000000000000000000000815260040161247c90612e9b565b60405180910390fd5b612491600083836121d0565b6001600360008473ffffffffffffffffffffffffffffffffffffffff1673ffffffffffffffffffffffffffffffffffffffff16815260200190815260200160002060008282546124e191906131ba565b92505081905550816002600083815260200190815260200160002060006101000a81548173ffffffffffffffffffffffffffffffffffffffff021916908373ffffffffffffffffffffffffffffffffffffffff160217905550808273ffffffffffffffffffffffffffffffffffffffff16600073ffffffffffffffffffffffffffffffffffffffff167fddf252ad1be2c89b69c2b068fc378daa952ba7f163c4a11628f55a4df523b3ef60405160405180910390a45050565b600080823b905060008111915050919050565b60006125c06125bb8461313b565b613116565b9050828152602081018484840111156125d857600080fd5b6125e3848285613393565b509392505050565b6000813590506125fa81613bbd565b92915050565b60008135905061260f81613bd4565b92915050565b60008135905061262481613beb565b92915050565b60008151905061263981613beb565b92915050565b600082601f83011261265057600080fd5b81356126608482602086016125ad565b91505092915050565b60008135905061267881613c02565b92915050565b60006020828403121561269057600080fd5b600061269e848285016125eb565b91505092915050565b600080604083850312156126ba57600080fd5b60006126c8858286016125eb565b92505060206126d9858286016125eb565b9150509250929050565b6000806000606084860312156126f857600080fd5b6000612706868287016125eb565b9350506020612717868287016125eb565b925050604061272886828701612669565b9150509250925092565b6000806000806080858703121561274857600080fd5b6000612756878288016125eb565b9450506020612767878288016125eb565b935050604061277887828801612669565b925050606085013567ffffffffffffffff81111561279557600080fd5b6127a18782880161263f565b91505092959194509250565b600080604083850312156127c057600080fd5b60006127ce858286016125eb565b92505060206127df85828601612600565b9150509250929050565b600080604083850312156127fc57600080fd5b600061280a858286016125eb565b925050602061281b85828601612669565b9150509250929050565b60006020828403121561283757600080fd5b600061284584828501612615565b91505092915050565b60006020828403121561286057600080fd5b600061286e8482850161262a565b91505092915050565b60006020828403121561288957600080fd5b600061289784828501612669565b91505092915050565b6128a981613303565b82525050565b6128b881613315565b82525050565b60006128c98261316c565b6128d38185613182565b93506128e38185602086016133a2565b6128ec8161356e565b840191505092915050565b600061290282613177565b61290c818561319e565b935061291c8185602086016133a2565b6129258161356e565b840191505092915050565b600061293b82613177565b61294581856131af565b93506129558185602086016133a2565b80840191505092915050565b600061296e600f8361319e565b91506129798261357f565b602082019050919050565b600061299160198361319e565b915061299c826135a8565b602082019050919050565b60006129b460148361319e565b91506129bf826135d1565b602082019050919050565b60006129d7602b8361319e565b91506129e2826135fa565b604082019050919050565b60006129fa60328361319e565b9150612a0582613649565b604082019050919050565b6000612a1d60268361319e565b9150612a2882613698565b604082019050919050565b6000612a40601c8361319e565b9150612a4b826136e7565b602082019050919050565b6000612a6360248361319e565b9150612a6e82613710565b604082019050919050565b6000612a8660198361319e565b9150612a918261375f565b602082019050919050565b6000612aa9603a8361319e565b9150612ab482613788565b604082019050919050565b6000612acc601d8361319e565b9150612ad7826137d7565b602082019050919050565b6000612aef602c8361319e565b9150612afa82613800565b604082019050919050565b6000612b1260088361319e565b9150612b1d8261384f565b602082019050919050565b6000612b3560108361319e565b9150612b4082613878565b602082019050919050565b6000612b5860388361319e565b9150612b63826138a1565b604082019050919050565b6000612b7b602a8361319e565b9150612b86826138f0565b604082019050919050565b6000612b9e60298361319e565b9150612ba98261393f565b604082019050919050565b6000612bc160208361319e565b9150612bcc8261398e565b602082019050919050565b6000612be4602c8361319e565b9150612bef826139b7565b604082019050919050565b6000612c0760208361319e565b9150612c1282613a06565b602082019050919050565b6000612c2a60298361319e565b9150612c3582613a2f565b604082019050919050565b6000612c4d602f8361319e565b9150612c5882613a7e565b604082019050919050565b6000612c7060218361319e565b9150612c7b82613acd565b604082019050919050565b6000612c93600083613193565b9150612c9e82613b1c565b600082019050919050565b6000612cb660318361319e565b9150612cc182613b1f565b604082019050919050565b6000612cd9602c8361319e565b9150612ce482613b6e565b604082019050919050565b612cf881613389565b82525050565b6000612d0a8285612930565b9150612d168284612930565b91508190509392505050565b6000612d2d82612c86565b9150819050919050565b6000602082019050612d4c60008301846128a0565b92915050565b6000608082019050612d6760008301876128a0565b612d7460208301866128a0565b612d816040830185612cef565b8181036060830152612d9381846128be565b905095945050505050565b6000602082019050612db360008301846128af565b92915050565b60006020820190508181036000830152612dd381846128f7565b905092915050565b60006020820190508181036000830152612df481612961565b9050919050565b60006020820190508181036000830152612e1481612984565b9050919050565b60006020820190508181036000830152612e34816129a7565b9050919050565b60006020820190508181036000830152612e54816129ca565b9050919050565b60006020820190508181036000830152612e74816129ed565b9050919050565b60006020820190508181036000830152612e9481612a10565b9050919050565b60006020820190508181036000830152612eb481612a33565b9050919050565b60006020820190508181036000830152612ed481612a56565b9050919050565b60006020820190508181036000830152612ef481612a79565b9050919050565b60006020820190508181036000830152612f1481612a9c565b9050919050565b60006020820190508181036000830152612f3481612abf565b9050919050565b60006020820190508181036000830152612f5481612ae2565b9050919050565b60006020820190508181036000830152612f7481612b05565b9050919050565b60006020820190508181036000830152612f9481612b28565b9050919050565b60006020820190508181036000830152612fb481612b4b565b9050919050565b60006020820190508181036000830152612fd481612b6e565b9050919050565b60006020820190508181036000830152612ff481612b91565b9050919050565b6000602082019050818103600083015261301481612bb4565b9050919050565b6000602082019050818103600083015261303481612bd7565b9050919050565b6000602082019050818103600083015261305481612bfa565b9050919050565b6000602082019050818103600083015261307481612c1d565b9050919050565b6000602082019050818103600083015261309481612c40565b9050919050565b600060208201905081810360008301526130b481612c63565b9050919050565b600060208201905081810360008301526130d481612ca9565b9050919050565b600060208201905081810360008301526130f481612ccc565b9050919050565b60006020820190506131106000830184612cef565b92915050565b6000613120613131565b905061312c8282613407565b919050565b6000604051905090565b600067ffffffffffffffff8211156131565761315561353f565b5b61315f8261356e565b9050602081019050919050565b600081519050919050565b600081519050919050565b600082825260208201905092915050565b600081905092915050565b600082825260208201905092915050565b600081905092915050565b60006131c582613389565b91506131d083613389565b9250827fffffffffffffffffffffffffffffffffffffffffffffffffffffffffffffffff03821115613205576132046134b2565b5b828201905092915050565b600061321b82613389565b915061322683613389565b925082613236576132356134e1565b5b828204905092915050565b600061324c82613389565b915061325783613389565b9250817fffffffffffffffffffffffffffffffffffffffffffffffffffffffffffffffff04831182151516156132905761328f6134b2565b5b828202905092915050565b60006132a68261334d565b91506132b18361334d565b9250828210156132c4576132c36134b2565b5b828203905092915050565b60006132da82613389565b91506132e583613389565b9250828210156132f8576132f76134b2565b5b828203905092915050565b600061330e82613369565b9050919050565b60008115159050919050565b60007fffffffff0000000000000000000000000000000000000000000000000000000082169050919050565b60006fffffffffffffffffffffffffffffffff82169050919050565b600073ffffffffffffffffffffffffffffffffffffffff82169050919050565b6000819050919050565b82818337600083830152505050565b60005b838110156133c05780820151818401526020810190506133a5565b838111156133cf576000848401525b50505050565b600060028204905060018216806133ed57607f821691505b6020821081141561340157613400613510565b5b50919050565b6134108261356e565b810181811067ffffffffffffffff8211171561342f5761342e61353f565b5b80604052505050565b600061344382613389565b91507fffffffffffffffffffffffffffffffffffffffffffffffffffffffffffffffff821415613476576134756134b2565b5b600182019050919050565b600061348c82613389565b915061349783613389565b9250826134a7576134a66134e1565b5b828206905092915050565b7f4e487b7100000000000000000000000000000000000000000000000000000000600052601160045260246000fd5b7f4e487b7100000000000000000000000000000000000000000000000000000000600052601260045260246000fd5b7f4e487b7100000000000000000000000000000000000000000000000000000000600052602260045260246000fd5b7f4e487b7100000000000000000000000000000000000000000000000000000000600052604160045260246000fd5b6000601f19601f8301169050919050565b7f6e6f7420656e6f7567682066756e640000000000000000000000000000000000600082015250565b7f63616e27742072656365697665207768656e2070617573656400000000000000600082015250565b7f5061757361626c653a206e6f7420706175736564000000000000000000000000600082015250565b7f455243373231456e756d657261626c653a206f776e657220696e646578206f7560008201527f74206f6620626f756e6473000000000000000000000000000000000000000000602082015250565b7f4552433732313a207472616e7366657220746f206e6f6e20455243373231526560008201527f63656976657220696d706c656d656e7465720000000000000000000000000000602082015250565b7f4f776e61626c653a206e6577206f776e657220697320746865207a65726f206160008201527f6464726573730000000000000000000000000000000000000000000000000000602082015250565b7f4552433732313a20746f6b656e20616c7265616479206d696e74656400000000600082015250565b7f4552433732313a207472616e7366657220746f20746865207a65726f2061646460008201527f7265737300000000000000000000000000000000000000000000000000000000602082015250565b7f4552433732313a20617070726f766520746f2063616c6c657200000000000000600082015250565b7f416464726573733a20756e61626c6520746f2073656e642076616c75652c207260008201527f6563697069656e74206d61792068617665207265766572746564000000000000602082015250565b7f416464726573733a20696e73756666696369656e742062616c616e6365000000600082015250565b7f4552433732313a206f70657261746f7220717565727920666f72206e6f6e657860008201527f697374656e7420746f6b656e0000000000000000000000000000000000000000602082015250565b7f736f6c64206f7574000000000000000000000000000000000000000000000000600082015250565b7f5061757361626c653a2070617573656400000000000000000000000000000000600082015250565b7f4552433732313a20617070726f76652063616c6c6572206973206e6f74206f7760008201527f6e6572206e6f7220617070726f76656420666f7220616c6c0000000000000000602082015250565b7f4552433732313a2062616c616e636520717565727920666f7220746865207a6560008201527f726f206164647265737300000000000000000000000000000000000000000000602082015250565b7f4552433732313a206f776e657220717565727920666f72206e6f6e657869737460008201527f656e7420746f6b656e0000000000000000000000000000000000000000000000602082015250565b7f4552433732313a206d696e7420746f20746865207a65726f2061646472657373600082015250565b7f4552433732313a20617070726f76656420717565727920666f72206e6f6e657860008201527f697374656e7420746f6b656e0000000000000000000000000000000000000000602082015250565b7f4f776e61626c653a2063616c6c6572206973206e6f7420746865206f776e6572600082015250565b7f4552433732313a207472616e73666572206f6620746f6b656e2074686174206960008201527f73206e6f74206f776e0000000000000000000000000000000000000000000000602082015250565b7f4552433732314d657461646174613a2055524920717565727920666f72206e6f60008201527f6e6578697374656e7420746f6b656e0000000000000000000000000000000000602082015250565b7f4552433732313a20617070726f76616c20746f2063757272656e74206f776e6560008201527f7200000000000000000000000000000000000000000000000000000000000000602082015250565b50565b7f4552433732313a207472616e736665722063616c6c6572206973206e6f74206f60008201527f776e6572206e6f7220617070726f766564000000000000000000000000000000602082015250565b7f455243373231456e756d657261626c653a20676c6f62616c20696e646578206f60008201527f7574206f6620626f756e64730000000000000000000000000000000000000000602082015250565b613bc681613303565b8114613bd157600080fd5b50565b613bdd81613315565b8114613be857600080fd5b50565b613bf481613321565b8114613bff57600080fd5b50565b613c0b81613389565b8114613c1657600080fd5b5056fea26469706673582212200ed47e250605d6ccb5c4c651a2fd799e89480fe0636c1e497fd4fa590b01afa064736f6c63430008040033",
  "devdoc": {
    "kind": "dev",
    "methods": {
      "approve(address,uint256)": {
        "details": "See {IERC721-approve}."
      },
      "balanceOf(address)": {
        "details": "See {IERC721-balanceOf}."
      },
      "getApproved(uint256)": {
        "details": "See {IERC721-getApproved}."
      },
      "isApprovedForAll(address,address)": {
        "details": "See {IERC721-isApprovedForAll}."
      },
      "name()": {
        "details": "See {IERC721Metadata-name}."
      },
      "owner()": {
        "details": "Returns the address of the current owner."
      },
      "ownerOf(uint256)": {
        "details": "See {IERC721-ownerOf}."
      },
      "paused()": {
        "details": "Returns true if the contract is paused, and false otherwise."
      },
      "renounceOwnership()": {
        "details": "Leaves the contract without owner. It will not be possible to call `onlyOwner` functions anymore. Can only be called by the current owner. NOTE: Renouncing ownership will leave the contract without an owner, thereby removing any functionality that is only available to the owner."
      },
      "safeTransferFrom(address,address,uint256)": {
        "details": "See {IERC721-safeTransferFrom}."
      },
      "safeTransferFrom(address,address,uint256,bytes)": {
        "details": "See {IERC721-safeTransferFrom}."
      },
      "setApprovalForAll(address,bool)": {
        "details": "See {IERC721-setApprovalForAll}."
      },
      "supportsInterface(bytes4)": {
        "details": "See {IERC165-supportsInterface}."
      },
      "symbol()": {
        "details": "See {IERC721Metadata-symbol}."
      },
      "tokenByIndex(uint256)": {
        "details": "See {IERC721Enumerable-tokenByIndex}."
      },
      "tokenOfOwnerByIndex(address,uint256)": {
        "details": "See {IERC721Enumerable-tokenOfOwnerByIndex}."
      },
      "tokenURI(uint256)": {
        "details": "See {IERC721Metadata-tokenURI}."
      },
      "totalSupply()": {
        "details": "See {IERC721Enumerable-totalSupply}."
      },
      "transferFrom(address,address,uint256)": {
        "details": "See {IERC721-transferFrom}."
      },
      "transferOwnership(address)": {
        "details": "Transfers ownership of the contract to a new account (`newOwner`). Can only be called by the current owner."
      }
    },
    "version": 1
  },
  "userdoc": {
    "kind": "user",
    "methods": {},
    "version": 1
  },
  "storageLayout": {
    "storage": [
      {
        "astId": 222,
        "contract": "contracts/KingsleyFundingNFT.sol:KingsleyFundingNFT",
        "label": "_name",
        "offset": 0,
        "slot": "0",
        "type": "t_string_storage"
      },
      {
        "astId": 224,
        "contract": "contracts/KingsleyFundingNFT.sol:KingsleyFundingNFT",
        "label": "_symbol",
        "offset": 0,
        "slot": "1",
        "type": "t_string_storage"
      },
      {
        "astId": 228,
        "contract": "contracts/KingsleyFundingNFT.sol:KingsleyFundingNFT",
        "label": "_owners",
        "offset": 0,
        "slot": "2",
        "type": "t_mapping(t_uint256,t_address)"
      },
      {
        "astId": 232,
        "contract": "contracts/KingsleyFundingNFT.sol:KingsleyFundingNFT",
        "label": "_balances",
        "offset": 0,
        "slot": "3",
        "type": "t_mapping(t_address,t_uint256)"
      },
      {
        "astId": 236,
        "contract": "contracts/KingsleyFundingNFT.sol:KingsleyFundingNFT",
        "label": "_tokenApprovals",
        "offset": 0,
        "slot": "4",
        "type": "t_mapping(t_uint256,t_address)"
      },
      {
        "astId": 242,
        "contract": "contracts/KingsleyFundingNFT.sol:KingsleyFundingNFT",
        "label": "_operatorApprovals",
        "offset": 0,
        "slot": "5",
        "type": "t_mapping(t_address,t_mapping(t_address,t_bool))"
      },
      {
        "astId": 1176,
        "contract": "contracts/KingsleyFundingNFT.sol:KingsleyFundingNFT",
        "label": "_ownedTokens",
        "offset": 0,
        "slot": "6",
        "type": "t_mapping(t_address,t_mapping(t_uint256,t_uint256))"
      },
      {
        "astId": 1180,
        "contract": "contracts/KingsleyFundingNFT.sol:KingsleyFundingNFT",
        "label": "_ownedTokensIndex",
        "offset": 0,
        "slot": "7",
        "type": "t_mapping(t_uint256,t_uint256)"
      },
      {
        "astId": 1183,
        "contract": "contracts/KingsleyFundingNFT.sol:KingsleyFundingNFT",
        "label": "_allTokens",
        "offset": 0,
        "slot": "8",
        "type": "t_array(t_uint256)dyn_storage"
      },
      {
        "astId": 1187,
        "contract": "contracts/KingsleyFundingNFT.sol:KingsleyFundingNFT",
        "label": "_allTokensIndex",
        "offset": 0,
        "slot": "9",
        "type": "t_mapping(t_uint256,t_uint256)"
      },
      {
        "astId": 122,
        "contract": "contracts/KingsleyFundingNFT.sol:KingsleyFundingNFT",
        "label": "_paused",
        "offset": 0,
        "slot": "10",
        "type": "t_bool"
      },
      {
        "astId": 7,
        "contract": "contracts/KingsleyFundingNFT.sol:KingsleyFundingNFT",
        "label": "_owner",
        "offset": 1,
        "slot": "10",
        "type": "t_address"
      },
      {
        "astId": 2140,
        "contract": "contracts/KingsleyFundingNFT.sol:KingsleyFundingNFT",
        "label": "interval",
        "offset": 0,
        "slot": "11",
        "type": "t_struct(Interval)2137_storage"
      },
      {
        "astId": 2142,
        "contract": "contracts/KingsleyFundingNFT.sol:KingsleyFundingNFT",
        "label": "rewardPerSec",
        "offset": 0,
        "slot": "12",
        "type": "t_uint256"
      },
      {
        "astId": 2146,
        "contract": "contracts/KingsleyFundingNFT.sol:KingsleyFundingNFT",
        "label": "_tokenUpdateTime",
        "offset": 0,
        "slot": "13",
        "type": "t_mapping(t_uint256,t_uint256)"
      }
    ],
    "types": {
      "t_address": {
        "encoding": "inplace",
        "label": "address",
        "numberOfBytes": "20"
      },
      "t_array(t_uint256)dyn_storage": {
        "base": "t_uint256",
        "encoding": "dynamic_array",
        "label": "uint256[]",
        "numberOfBytes": "32"
      },
      "t_bool": {
        "encoding": "inplace",
        "label": "bool",
        "numberOfBytes": "1"
      },
      "t_mapping(t_address,t_bool)": {
        "encoding": "mapping",
        "key": "t_address",
        "label": "mapping(address => bool)",
        "numberOfBytes": "32",
        "value": "t_bool"
      },
      "t_mapping(t_address,t_mapping(t_address,t_bool))": {
        "encoding": "mapping",
        "key": "t_address",
        "label": "mapping(address => mapping(address => bool))",
        "numberOfBytes": "32",
        "value": "t_mapping(t_address,t_bool)"
      },
      "t_mapping(t_address,t_mapping(t_uint256,t_uint256))": {
        "encoding": "mapping",
        "key": "t_address",
        "label": "mapping(address => mapping(uint256 => uint256))",
        "numberOfBytes": "32",
        "value": "t_mapping(t_uint256,t_uint256)"
      },
      "t_mapping(t_address,t_uint256)": {
        "encoding": "mapping",
        "key": "t_address",
        "label": "mapping(address => uint256)",
        "numberOfBytes": "32",
        "value": "t_uint256"
      },
      "t_mapping(t_uint256,t_address)": {
        "encoding": "mapping",
        "key": "t_uint256",
        "label": "mapping(uint256 => address)",
        "numberOfBytes": "32",
        "value": "t_address"
      },
      "t_mapping(t_uint256,t_uint256)": {
        "encoding": "mapping",
        "key": "t_uint256",
        "label": "mapping(uint256 => uint256)",
        "numberOfBytes": "32",
        "value": "t_uint256"
      },
      "t_string_storage": {
        "encoding": "bytes",
        "label": "string",
        "numberOfBytes": "32"
      },
      "t_struct(Interval)2137_storage": {
        "encoding": "inplace",
        "label": "struct KingsleyFundingNFT.Interval",
        "members": [
          {
            "astId": 2134,
            "contract": "contracts/KingsleyFundingNFT.sol:KingsleyFundingNFT",
            "label": "time0",
            "offset": 0,
            "slot": "0",
            "type": "t_uint128"
          },
          {
            "astId": 2136,
            "contract": "contracts/KingsleyFundingNFT.sol:KingsleyFundingNFT",
            "label": "time1",
            "offset": 16,
            "slot": "0",
            "type": "t_uint128"
          }
        ],
        "numberOfBytes": "32"
      },
      "t_uint128": {
        "encoding": "inplace",
        "label": "uint128",
        "numberOfBytes": "16"
      },
      "t_uint256": {
        "encoding": "inplace",
        "label": "uint256",
        "numberOfBytes": "32"
      }
    }
  }
}